:1000000085C100000C9485149DC100009BC10000B7
:1000100099C1000097C1000095C1000093C1000084
:1000200091C100008FC100008DC100000C94241408
:1000300089C1000087C100008BC3000083C100009C
:1000400081C100007FC100000C947F1C0C944D1CEA
:1000500079C1000077C1000075C1000073C10000C4
:1000600071C100006FC1000041D218423B06629589
:100070002043F40265620646A00C66EC1847A40C07
:1000800069F3194B600D6C29064DDC0C6D1B1C527D
:10009000A60554C207740804569A0657E805583C4A
:1000A0000F78BB02000000000000202F2000203D40
:1000B0002000072E050DD391FF080500000C00213C
:1000C000656A2D3B1322F862073F181D1CC700B05C
:1000D000876BF8B611EA2A001F41000D2E2D07D3B9
:1000E000913D04320000060021656A55E43023B9D1
:1000F00000070018146C070090876BF85611E92A66
:10010000001F410000030F1E2627000000030F1EE2
:100110002536386700030F256740605000030F271E
:100120005188838100030F2750C8C3C200270000F5
:100130000000000000670000000000000050000008
:1001400000000000008100000000000000C200006C
:1001500000000000504C4C310D0A00504C4C300D4A
:100160000A005620312E36372D67697261206E6184
:100170006E6F43554C383638005620312E36372DA9
:1001800067697261206E616E6F43554C3433330082
:10019000202F2000203D20004E2F4100454F420DD2
:1001A0000A004E2F41004E2F410000535300547D52
:1001B0007DFFFF4B4B7E7E004C4F56460D0A0042A2
:1001C0004F56460D0A004552523A4343410D0A002C
:1001D0000B08105B11F81547191D1A1C1BC71C00D2
:1001E0001DB221B623EA0007022E030D04E905CA59
:1001F000070C0B060D210E650F6A10C81193120330
:1002000015341733181819161B43215625002611CB
:1002100029592C812D353EC30D2E2D07D3913D0438
:10022000320000060010B07155E43023B900070019
:1002300018146C070090876BF85611E92A001F41CB
:100240000020697320756E6B6E6F776E2920557371
:1002500065206F6E65206F66003F2028004F464680
:10026000004F464600544D4F444500534D4F4445C2
:10027000000454053D1700000602000B080C000D99
:10028000210E6B0FD0105C11041206132214F80A11
:1002900000154421B622101818192E1ABF1B431C32
:1002A000091DB523EA242A2500261F29592C812D52
:1002B000352E0907040800090006FF3EC2FF047638
:1002C00005961700000602000B080C000D210E65B4
:1002D0000F6A106A114A1206132214F80A00154711
:1002E00021B622101818192E1A6D1B041C091DB2F4
:1002F00023EA242A2500261F29592C812D352E0971
:1003000007040800090006FF3EC2FF0011241FBEBB
:10031000CFEFD8E0DEBFCDBF11E0A0E0B1E0EAEC66
:10032000F7E402C005900D92A238B107D9F728E092
:10033000A2E8B1E001C01D92A731B207E1F703D0F6
:100340000C94E3235DCE0FB6F894A89580916000DD
:10035000886180936000109260000FBEC1E080E869
:100360000FB6F89480936100C09361000FBE219A8C
:10037000299A0E94521DCBD489EF87BD84E085BDA8
:1003800082E084BD80936E00109280008AE08093AA
:10039000810084B7877F84BF9FE088E10FB6F8941F
:1003A000A895809360000FBE909360008CE090E071
:1003B0000E94AF1CA2D50E94190F87E09DE1909387
:1003C000430380934203C0938501299878940E9447
:1003D000CE1C0E948E1132D20E9431190E946217E7
:1003E0000E94A11EF4CF8EBD0DB407FEFDCF8EB5C9
:1003F0000895EF92FF920F931F93CF93C82F8A30E7
:1004000008F0C8E028E0C29F800111248BE290E050
:100410000B521109FC01E00FF11FEC5FFE4F6491DC
:100420007C012FEFE21AF20A72D3C70183339105E0
:1004300089F7C550C53010F067E101C061E184E281
:1004400090E065D3CF911F910F91FF90EF900895A9
:10045000CF93DF9382E090E0FC01E752FF4F64917D
:10046000EC01219654D3CE01AB97B1F787E390E02E
:10047000FC01E558FF4F6491EC01219648D3CE0171
:10048000C036D105A9F78091100180FD18C060E148
:100490008FE090E03CD360EB80E190E038D361E7FF
:1004A00081E190E034D360E184E490E030D360EB0C
:1004B00085E490E02CD361E786E490E028D388E0DF
:1004C00098DFDF91CF9108952A98806C8CDF80E0CF
:1004D0008ADF2A9A0895CF93C62F2A98806483DFF3
:1004E0008C2F81DF2A9ACF9108952A987CDF2A9A4F
:1004F0000895EF92FF920F931F93CF93DF93EC0138
:10050000E898229A2A9A8EE190E001D22A988EE108
:1005100090E0FDD12A9A8DE290E0F9D180E3E5DF09
:1005200084E690E0F4D12A9880E45DDF8E01075DD7
:100530001F4F7E018FEFE81AF80ACE01EDD253DF8C
:10054000E701E016F106A9F72A9A2A988EE74BDF11
:100550008BE290E0EC012196DFD245DFCE01E397FC
:10056000C9F72A9A83E3C1DF81E0D6D1CDB7DEB7E0
:10057000E6E00C94BE23A1E0B0E0E1ECF2E00C94E4
:10058000A62322E0298341E0BE016F5F7F4F0196E1
:1005900074D289812EDF82E090E0ABDF2196E2E029
:1005A0000C94C223CF93E89886E39FDFCFEF85E3D7
:1005B0009CDFC1508077803229F08AE090E0A7D19B
:1005C000C111F5CFCF910895CF93CFEF84E38DDFA5
:1005D000C1508077803129F08AE090E098D1C11134
:1005E000F5CFE89ACF910895A2E0B0E0EAEFF2E00B
:1005F0000C94A4238C01FC0181818737E9F441E04C
:10060000BE016F5F7F4FC801029637D2892BA1F0E0
:1006100041E0BE016E5F7F4FC80104962ED2892B48
:1006200059F06A81898157DF83E35FDFCDDF8981FC
:100630001FD28A811DD22CC041E0BE016E5F7F4F68
:10064000C80101961AD2892B21F18A81893969F46E
:1006500010E0812F39DF0CD2812F8770873009F4A9
:100660008FD11F5F1033A9F714C02EDF182F83E43A
:100670005CD18A81FDD18EEA90E075D1812FF8D1CD
:100680008AEA90E070D140E262E0812F90E07DD173
:1006900077D12296E4E00C94C02386E326DF109203
:1006A00044031092B502089582E090E022DF81E0D9
:1006B000809344031092B50208950F931F93CF9334
:1006C000DF93D82FC0E0062F10E085E3FDDE8D1705
:1006D00031F0C8011CD1C150C1F781E001C080E0F8
:1006E000DF91CF911F910F91089585E2EDDE8F3359
:1006F00011F080E0089586E3F8DE80918201811197
:1007000004C08BE591E02FD102C08DE3EEDE83E3E0
:10071000ECDE64E081E0D1DF85E2D6DE8F3349F79D
:1007200080918201811103C084E591E01CD181E0B8
:10073000089585E3C9DE8D3051F485E2C5DE8F333F
:1007400031F4D3DF84E3D1DE80778031D9F70895A7
:100750001F920F920FB60F9211248F939F93AF9316
:10076000BF93EF93FF938091460390914703A0912D
:100770004803B09149030196A11DB11D8093460322
:1007800090934703A0934803B09349038091450396
:100790008F5F80934503EDE4F3E08081918118162B
:1007A00019061CF4019791838083369683E0E53621
:1007B000F80799F78091670390916803009729F0F3
:1007C0000197909368038093670380917A038F3F2A
:1007D00019F0815080937A03FF91EF91BF91AF910F
:1007E0009F918F910F900FBE0F901F901895FC0155
:1007F0009FB7F89440914603509147036091480396
:100800007091490340835183628373839FBF08952E
:10081000A4E0B0E0EEE0F4E00C94A623CE01019653
:10082000E6DF8C8125D18B8123D18A8121D18981F9
:100830001FD1A6D02496E2E00C94C2230F931F93FD
:10084000CF938091460390914703A0914803B091C4
:10085000490320918401281709F455C0809146036B
:1008600090914703A0914803B0914903809384017C
:10087000A8950DE413E0C0E0F80180819181892BF7
:1008800011F48C2F84D5CF5F0A5F1F4FC430A1F7BE
:100890008091670390916803892B09F4D3D58091E7
:1008A0007A03811101C02CD6809145038D3758F110
:1008B000109245038091000181FF04C095B182E050
:1008C000892785B980918B0390918C038438F3E05C
:1008D0009F0728F4019690938C0380938B0380915B
:1008E00083018F5F8C3319F0809383010CC01092C9
:1008F000830180914C038F5F8C3318F480934C03F9
:1009000002C010924C03CF911F910F910895880F50
:10091000991F0197F1F7089520ED37E0815020F0FD
:10092000F9013197F1F7FACF08959091850190FF81
:100930000EC0909192039E3730F097FD08C08D3025
:1009400011F08A3021F4682F80E993E0FFC1089507
:10095000CF93DF93EC018991882311F0E6DFFBCF81
:10096000DF91CF910895CF93DF93EC01FE01849145
:10097000882319F0DADF2196F9CFDF91CF9108951E
:100980008DE0D3DF8AE0D1CF0895A6E0B0E0EBECB4
:10099000F4E00C94A423362F1E8225E0EAE0F0E078
:1009A000215001E010E00C0F1D1F020F111DBF01AF
:1009B0000E948223805DD8018C93CB013150009737
:1009C00069F02111EDCF0AC0222359F02150E1E056
:1009D000F0E0EC0FFD1FE20FF11D4083315037FFB7
:1009E000F3CF81E090E08C0F9D1F820F911DB0DF4F
:1009F0002696E4E00C94C023A5E0B0E0E2E0F5E048
:100A00000C94A423FC011D8294E02E2F2F70915092
:100A1000A92FB0E02A3010F4205D01C0295C01E06C
:100A200010E00C0F1D1FA00FB11F2C9384E0F69552
:100A3000E7958A95E1F76150309739F7615067FD86
:100A40000BC0992349F09150E1E0F0E0EC0FFD1F5D
:100A5000E90FF11D4083F2CF21E030E02C0F3D1F64
:100A6000290F311DC90174DF2596E4E00C94C023E1
:100A700040E362E090E0C0CF0895DC01FB0130E08C
:100A800020E09D919923B1F0913608F0905280EDCD
:100A9000890F8A3010F4982F05C08FEB890F8630AC
:100AA00028F49753922B332389F006C0903249F3F0
:100AB0009A3339F3CF0107C09F012F5F3F4F9083D7
:100AC000415049F4C901861B970B0895292F22959F
:100AD000207F31E0D6CFF901D2CFFC0120E030E019
:100AE0008AE09191992379F040ED490F4A30C8F797
:100AF000829FA001839F500D11249A012053310938
:100B0000290F311DEECFFB013183208308950E9410
:100B1000D523F999FECF08950C94CD2308950F9312
:100B20001F93CF93CFEFC60FCF3F61F08C010F5FC4
:100B30001F4FF2DF9DDFCC2311F08AE3F6DEC150B8
:100B4000C801F2CFCF911F910F910895A2E0B0E0BC
:100B5000ECEAF5E00C94A323FC0121812D3421F46F
:100B600066E08AEF93E005C0203529F460E18AED64
:100B700093E0D5DF28C01A82198242E0BE016F5F80
:100B80007F4F01967ADF823031F409811A81102774
:100B90000127102702C0098110E0C801BDDFF82E2F
:100BA00082E5C3DE40E364E0C80126DF84E991E02A
:100BB000DADE8F2D5DDF80E991E0D5DE40E262E094
:100BC0008F2D90E0E2DEDCDE2296E5E00C94BF2380
:100BD000A6E0B0E0EEEEF5E00C94A0238C0143E03B
:100BE000BE016F5F7F4F019648DF823070F1823027
:100BF00019F4C980D12C05C0C980DA80DC24CD2449
:100C0000DC247C01FF24FE01EE0DFF1D6081C60186
:100C10007EDFEE0CFF1C8FEFE81AF80A0E0D1F1D89
:100C2000F8018081882389F041E0BE016F5F7F4F2A
:100C3000C80123DF892B49F0EFEFCE1ADE0A698164
:100C4000C60165DF0E5F1F4FEBCF2696E8E00C94E0
:100C5000BC2341E060E071E001960FDF809100016C
:100C600080FF02C0299A01C029986091000184E3A5
:100C700090E04DCF0895A1E0B0E0E1E4F6E00C94FF
:100C8000A6231982009731F041E0BE016F5F7F4FCC
:100C90000196F3DE89818F3F09F4FFCF882321F08D
:100CA00061E083E390E033DF10926E00F89498E007
:100CB00088E10FB6F894A895809360000FBE9093DA
:100CC0006000FFCFCF93DF93EC0161E080E090E024
:100CD0001EDF63E481E090E01ADFBADB60E080E6CB
:100CE00090E015DF60E081E690E011DF60E083E3F3
:100CF00090E00DDF62E084E390E009DF89818837CE
:100D000019F080E090E0B7DFDF91CF91089580E0A7
:100D100090E002DF813029F481E090E0FDDE833451
:100D200019F080E090E0CEDF84E390E0F5DE809380
:100D3000000108958091100180FD03C089E791E0D2
:100D400002C082E691E00FDE1BCE0895FC019FB742
:100D5000F894828187FD0EC08F5F8283208181E0BD
:100D6000820F8083DF01A20FB11D13966C93803830
:100D700009F410829FBF0895FC012FB7F894828177
:100D8000811102C02FBF08959FEF980F9283918128
:100D900081E0890F8183DF01A90FB11D13969C911A
:100DA000803809F411822FBF892F089510926503AE
:100DB0001092420283E080938C018FEF80937A033C
:100DC0000895EDE8F1E02081211105C0892BB1F0F3
:100DD00080E090E00895B2E0EB33FB07B8F70097AE
:100DE00051F04181DC013C91431305C042811196D1
:100DF0003C91431751F0E20FF11DE5CF32E0EB33A8
:100E0000F30719F010F0EBE3F2E0CF01089524E0CE
:100E1000829FC0011124FC01E558FC4F80818F3F67
:100E200089F08093870181818093880182818093FA
:100E30008901838180938A0121E04CE064E087E8A6
:100E400091E0FCC408958CE392E0BBDF009799F039
:100E500020918C01FC013081231768F4E20FF11D11
:100E6000808180933E0289E780933F028181809355
:100E7000400281E0089580E008950F931F93CF937F
:100E8000DF9320918E0326FF12C08C0184E54DDD97
:100E9000E8010B5F1F4F8991EBDDC017D107D9F730
:100EA00080918E0385FF02C08AEFE2DD69DDDF916C
:100EB000CF911F910F91089586E317DB80913E0239
:100EC000833511F08BE401C08BE926DD21E04CE095
:100ED00065E08CE392E0B2D477DB8CE392E0CDCF97
:100EE0000895EADF80913E02893631F081E08093F7
:100EF0003B0289E280937A030895CF9385E390E0E3
:100F00000BDE80934B0386E390E006DE809379034B
:100F1000E9E6F3E0CFEFC083C283C483C683C08712
:100F2000C287C487C68742DF10928D0181E080931B
:100F30004A03ABE7B3E0CC93EDE4F3E08FEF9FEF30
:100F40009183808313821282158214821496CC932B
:100F500014979783868311861086138612861896B7
:100F6000CC9318979587848717861686118A108ADE
:100F70001C96CC93938B828B158A148A178A168AB7
:100F8000CF910895ABE0B0E0E8ECF7E00C949C233F
:100F90007C018C010F5F1F4F45E0BE016F5F7F4FEB
:100FA000C8016BDD843008F0CAC09981913091F49A
:100FB000833051F46A8185E390E0A9DD6B8186E39B
:100FC00090E0A5DD9ADFDFC180914B0351DD809178
:100FD000790387C0923009F04AC0813039F081E04E
:100FE0009A81913009F080E0E82E02C0EE24E3946B
:100FF00080918D01811103C088E991E0B4DC0DE896
:1010000011E0F8018081882309F497C0F2E00B33E6
:101010001F0708F092C021E00D38120711F080E29E
:1010200084DCF801818124DDF801828121DDE11079
:1010300005C0F8018081080F111DE3CF8AE375DC3C
:1010400083E0F82EF8018081F81698F7F3E0FF1599
:1010500020F4F0FE02C08CE268DCDD24D394DF0CC7
:10106000F801EF0DF11D808103DDFD2CEBCF9330F6
:1010700049F480E090E0A5DE8D5891409EEA981BEF
:10108000892F2FC0903111F509E613E0E12CF12CE6
:10109000F80180818F3F79F0FF2011F080E245DC7C
:1010A0008E2DE6DC8AE341DCF8018081E1DCF80189
:1010B0008181DEDCF3940E5F1F4FE394F8E0EF12C2
:1010C000E7CFF1103AC086EA91E036C0913159F489
:1010D00080916703909168036DE770E00E9482231E
:1010E000862FC6DC2AC0923141F50BE713E0E12CD4
:1010F000F12CF80180818F3FA9F0FF2011F080E2F0
:1011000014DC8E2DB5DC8AE310DCF8018081B0DCC4
:10111000F8018181ADDCF8018281AADCF8018381CC
:10112000A7DCF3940C5F1F4FE394F4E0EF12E1CFE0
:10113000F11003C082EA91E016DC22DC24C144E015
:10114000BE01695F7F4FC80198DC2F81293608F402
:1011500080C05A85388549855C3009F052C0ABE7BC
:10116000B3E080E090E0FD01EB57F3405C91251384
:1011700022C011966C91119763131DC012966C9149
:101180001297641318C0E558FC4F2CE023839C0190
:10119000220F331F820F931FFC01EE0FFF1FE35B33
:1011A000FC4F11821082880F991FFC01E15BFC4FFC
:1011B00011821082CEC05F3FE9F4E558FC4F2083D6
:1011C000318342832CE023839C01220F331F820F43
:1011D000931FFC01EE0FFF1FE35BFC4F1182108297
:1011E000880F991FFC01E15BFC4F11821082109265
:1011F0004A03AFC0019614968430910509F0B3CF2D
:10120000C2C0EBE7F3E080E090E0BF016B577340B2
:10121000A0812A1318C0A181A31315C0A281A41311
:1012200012C0FB01E558FC4F5383FC01EE0FFF1F7A
:10123000E80FF91FEE0FFF1FE15BFC4F81E090E02C
:1012400091838083A0C00196349684309105E9F69D
:101250009AC0E98120914B03E217B8F1822F90E008
:1012600007964E2F50E0841795077CF19A81809164
:10127000790398132AC09C819F3229F442E06CE0E4
:10128000C70146D380C08D819C32B9F48093660338
:1012900021E030E0309368032093670320918B03B3
:1012A00030918C03A90164E0869F400D511D1124EB
:1012B00050938C0340938B0366C0E21BEE0FF0E06B
:1012C000E759FC4F908381835EC080E090E079DD38
:1012D0006C01F80101900020E9F73197E01BF10B58
:1012E000F695E79501E00E0FC601800F911D8D5810
:1012F00091408F3A91050CF043C0F60100835601EE
:1013000011E0812F880F81501017C8F44501FFEFBD
:101310008F1A9F0A41E0B4019701280F311DC901BE
:10132000ACDB133048F010FD07C0F5018081843636
:1013300019F4818180934C031F5F5401E2CFFBE3DA
:10134000CF16F2E0DF06F8F4F601E10FF11D10828E
:101350001AC022E04CE064E0CE0107966FD28FE025
:101360008A8722E04CE064E0CE01079667D282E0F3
:101370008A8722E04CE064E0CE0107965FD203C08A
:101380008CE991E0F0DA2B96ECE00C94B8230F9303
:101390001F93CF93DF9390914A0391114EC093E036
:1013A000899FE0011124FE01EE0FFF1FE35BFC4F5C
:1013B00094E0899FD0011124A558BC4F12969C91AE
:1013C000977040E850E0491B51099AEF949F9001B3
:1013D000959F300D112435952795359527953183A7
:1013E00020838E01000F111F0F5A1C4FF80120811E
:1013F00031812F5F3F4F31832083CC0FDD1FC15BD5
:10140000DC4F488159814115510529F424303105BB
:10141000A1F4FDDC0FC04130510531F4F8DC82E06D
:1014200090E09983888309C04230510531F4EFDCA4
:1014300019821882F80111821082DF91CF911F91D9
:101440000F910895A6E0B0E0E8E2FAE00C94A22340
:10145000809179038A831B8290916603992341F0DE
:10146000933019F08DE790E010C087E791E00DC050
:10147000877090E08A519F4F4DE7489F9001499FA8
:10148000300D1124C9019595879590936803809339
:10149000670389E6E82E83E0F82E10E00CE2F701FE
:1014A00090819F3FB9F080914B03810F8983809198
:1014B0006603882311F00C8303C09C83F7018181AC
:1014C0008D8321E04CE065E0CE010196B7D1CE01DD
:1014D0000196D3DC1F5FF2E0EF0EF11C1830F9F635
:1014E00080916603882341F0833019F410926603DB
:1014F00003C08250809366032696E6E00C94BE23D8
:1015000080913B02882351F0D7DC89E280937A03F3
:1015100080913B02815080933B02089547CC08950F
:10152000FF920F931F93CF93DF93FC01F080018113
:10153000C281D38114818FE580937A0310923B029C
:1015400080914B03811105C080917903882309F4B0
:10155000A5C080913C02F81204C080913D0208179A
:1015600029F024DCF0923C0200933D028091650357
:101570008F3F09F493C0C0933E02D0933F02109373
:101580004002CC23F1F081111CC080914B0318174D
:1015900061F0143651F08DEA8C0F823010F0CD37A7
:1015A00039F48FEF8093650379C0C43509F476C0B0
:1015B0008D2F807F803609F071C0D067D0933F02B5
:1015C0006CC041DC811105C080916503882309F45A
:1015D00065C080914202811107C0E0916503F0E08F
:1015E000E655FE4FE49101C0E82FE33541F4C435E0
:1015F00031F4909165039E5F9093650304C0EC17EE
:1016000011F0D4DB4BC0882369F080918C018E5F90
:1016100080938C0118DC81110EC0809165038E5F70
:101620008093650380916503E82FF0E0E555FE4F58
:10163000C491CF3F59F480913E0280934202843698
:1016400061F580914C038093400227C0C0933E0215
:1016500097E790933F0290914B03909340028E5FE7
:1016600080936503109242028E30B1F48CE392E0D5
:10167000A8DBFC01892B79F0A081B0E08BE392E03C
:101680008A1B9B0BAE0FBF1FE817F90718F42D91AB
:101690002193FACF10828ADBC11123DCCDB7DEB7EC
:1016A000E5E00C94BF23FA019081882369F0DB0107
:1016B000A90FB11DE1E0F0E0022E01C0EE0F0A9487
:1016C000EAF78C91E82BEC93222319F08FEF820F2D
:1016D0000BC081E0890F8C3010F4FA018083FB018C
:1016E000E80FF11D108287E090E00895CF93C82F96
:1016F0005B9A882319F08091440202C080914602CF
:1017000020E1829FC001112402D95B98CC2319F0FB
:101710008091430202C08091450220E1829FC00176
:101720001124F5D8CF910895A0E0B0E0EAE9FBE0FC
:101730000C9496234C01162FA22EC42ED12CC60138
:101740000296089F802D1124082E000C990B2091E1
:101750008B0330918C032817390720F488EB91E034
:1017600002D967C0281B390B30938C0320938B035D
:10177000299A80914403811102C00E9454030E945F
:10178000D202212E312C66246394712CB12CC0E03E
:101790008C2F0C2E000C990B8215930524F480E0FD
:1017A000A5DFCF5FF5CF112311F081E09FDFF12C92
:1017B000CF2D0F2C000CDD0BCC15DD05A4F497E02C
:1017C000492E512CC80DD91DC301042C01C0880F0E
:1017D0000A94EAF79881892389DF81E0481A510841
:1017E00098F7F394E5CF87E0F82EC80DD91D8F2D1B
:1017F0000F2C000C990BA816B9065CF4C3010F2C32
:1018000001C0880F0A94EAF7988189236FDFFA9460
:10181000EECF8E2D81D8015009F0B9CF80918E0383
:10182000882319F00E94E40203C086E30E94750237
:101830002998CDB7DEB7E2E10C94B223ADE0B0E079
:10184000E4E2FCE00C949B237C01162F842F022FF2
:101850006701C60ED11C462FB70129D3F60180833C
:101860001F5F1D86198227E0712CCC24C394D12CD4
:1018700097E0A92EB12C4701870C911C711658F5E1
:10188000C6010A2C01C0880F0A94EAF7F40190817E
:10189000AE01435F5F4FBE016F5F7F4F892303DF60
:1018A000282FF1E0AF1AB10848F7F4018081082E23
:1018B00082958025082E8695869580258F5F869552
:1018C0008170AE01435F5F4FBE016F5F7F4FEBDE04
:1018D000282F7394CDCF222311F0215004C08D8581
:1018E0008F5F8D8727E089E18093450280934602D0
:1018F00085E280934302809344028AE0E82E4D857E
:101900006CE0CE01019610DF2D96EDE00C94B7232C
:10191000ACE0B0E0EEE8FCE00C94A423162F042F1A
:101920004BE0BE016F5F7F4F0196A7D8202F412F5C
:10193000682FCE01019682DF2C96E4E00C94C02340
:1019400043E066E0E5CF0895EF920F93CF93DF93E6
:10195000CDB7DEB760970FB6F894DEBF0FBECDBF30
:1019600040E1BE016F5F7F4F019687D869814A8150
:101970000B818C81809346028D81809345028E81FC
:10198000809344028F8180934302E02EE2948FE0A3
:10199000E8220F70242F2F7042954F70CE010896C9
:1019A000C3DE60960FB6F894DEBF0FBECDBFDF91E9
:1019B000CF910F91EF9008958F929F92BF92CF9207
:1019C000DF92EF92FF920F931F93CF93DF93CDB7E8
:1019D000DEB769970FB6F894DEBF0FBECDBF4BE000
:1019E0008E010F5F1F4FB801019647D8F82E89E08E
:1019F000F81254C089E18093450280934602809397
:101A0000440282E38093430269E0C8015AD2F8019C
:101A1000EF0DF11D8083198E1D86680127E0882453
:101A20008394912CE12CF12CBC2CB01AF9E0FB151D
:101A300028F1C4010E2C01C0880F0A94EAF7F601C0
:101A40009081AE01475E5F4FBE01635F7F4F892388
:101A50002ADE282FFFEFEF1AFF0A88E0E816F104CC
:101A600029F7AE01475E5F4FBE01635F7F4F81E0A4
:101A70001ADE282FEFEFCE1ADE0AD4CF222311F080
:101A8000215004C0898D8F5F898F27E08AE0E82E7E
:101A900003E0498D6CE0CE010D9646DE69960FB6E7
:101AA000F894DEBF0FBECDBFDF91CF911F910F9194
:101AB000FF90EF90DF90CF90BF909F908F90089510
:101AC000A9E1B0E0E6E6FDE00C949D234BE09E0129
:101AD0002F5F3F4F7901B90101960E943D05182FF4
:101AE00085E38093460296E19093450290934402E9
:101AF00080934302612FC701F0D1F701E10FF11D7F
:101B0000808399249394910E198E1D86670127E096
:101B1000AA24A394B12C8C2D8E19891508F044C0E9
:101B200000E010E0C501002E01C0880F0A94EAF71A
:101B3000F6019081AE01475E5F4FBE01635F7F4F4C
:101B40008923B1DD282F0F5F1F4F0430110551F796
:101B5000AE01475E5F4FBE01635F7F4F81E0A3DD53
:101B6000282FC501002E01C0880F0A94EAF7F6015C
:101B70009081AE01475E5F4FBE01635F7F4F892357
:101B800092DD282F0F5F1F4F0830110551F7AE016E
:101B9000475E5F4FBE01635F7F4F81E084DD282F8A
:101BA000FFEFCF1ADF0AB7CF8AE0E82E03E0498DB6
:101BB0006AE0CE010D96B8DD6996EBE00C94B9238E
:101BC000A0E0B0E0E6EEFDE00C949C23DC01109276
:101BD0006402109279021196DC901197DD0CDD0CF5
:101BE000DD0C13968C911397D81A8D2D97E0B92E92
:101BF000BD0C1092650228E0D22ED80E71E090E064
:101C000040E087E057E0C12C37E0E32EF12C01E003
:101C100010E07D1509F47DC0FD01EC0DF11D24815E
:101C200030E0052E02C0359527950A94E2F7217021
:101C30003327552311F0515002C0C39457E06B3441
:101C400079F4833009F049C0411108C0232B09F011
:101C50005DC0109264029093790270C040E03FC072
:101C60008F3F39F56634B1F4E92FF0E0EB59FD4FC1
:101C7000E0810E2EE295E0250E2EE695E695E02514
:101C8000EF5FE695E170CE2F812CD82D2C173D0704
:101C900041F004C0653429F4232B19F44093640205
:101CA000DACF9F5FE92FF0E0EB59FD4F108287E01C
:101CB0002EC0232B49F1663469F4E92FF0E0EB598B
:101CC000FD4FA0809801082E01C0220F0A94EAF768
:101CD0002A2919C0653429F017C08F3FE9F2232B58
:101CE00099F0E92FF0E0EB59FD4F9701281B3109DE
:101CF00087FD3395480102C0880C991C2A95E2F7AC
:101D000094013081232B2083815001C041E07F5F0B
:101D100080CF4093640290937902B71678F46534CB
:101D200031F48F3F21F49F5F9093790202C04111FB
:101D3000FACF81E090917902911101C080E0CDB796
:101D4000DEB7ECE00C94B82310926F00E0917C02B7
:101D50008CE1E89FF0011124E358FD4F108280913F
:101D60008D038D7F80938D030895CF93DF93DC01E6
:101D7000362F273011F4E5E101C0ECE011962C91EB
:101D80001197C22FD0E050E0BE01641B750B9C91EF
:101D9000F0E06E177F0714F5AA27BB27AE1BBF0B19
:101DA000A617B707DCF4892F90E0632F70E09C0141
:101DB000261B370B2E173F078CF4A217B30774F4BA
:101DC0009E01280F391F640F751F261B370B2E1716
:101DD0003F0724F481E0A217B3070CF080E0DF9105
:101DE000CF910895FC018181843110F0ADCF089529
:101DF000662389F0DF01A80FB11D21E030E00380E8
:101E000002C0220F331F0A94E2F714969C91149794
:101E1000292B14962C939381992319F09150938335
:101E2000089597E093838F5F8183E80FF11D1482FB
:101E30000895539A5B985298E9E6F0E080818160BA
:101E4000808382EC91E090938C0380938B031092BB
:101E5000990210924403089580913E0381110BC0B2
:101E600080918E03882329F00E9454030C94E4028D
:101E700008950C944D030895FC01218121110FC098
:101E800080918E030E94380540E265E080918B03CB
:101E900090918C030E94C5040C94C004089541E005
:101EA0006EE873E001960E943D05D6CF0895442365
:101EB00039F04150FB01E40FF11D9081890FF7CFFC
:101EC00008959C0180E0662339F06150F901E60F26
:101ED000F11D90818927F7CF0895FC01709164026C
:101EE00040E095E020E0662399F06150DF01A60F05
:101EF000B11D3C91532F52955F702527950F772385
:101F000011F0442319F03F702327930F4F5FEBCF5D
:101F1000920F30E1939FC0011124822B0895FC01A0
:101F200082819381A081B181A80FB11D2C9130E0F5
:101F3000092E02C0359527950A94E2F721703FEFEC
:101F4000390F3383911104C08F5F828387E08383CD
:101F5000822F0895A0E0B0E0E0EBFFE00C949D2319
:101F60008C01942EC62ED12CC0E0D0E0B12CAA2436
:101F7000A394760121E0E21AF108CC15DD05C9F041
:101F8000C801CDDF882399F0992051F0C7018C1B3F
:101F90009D0B2A2D01C0220F8A95EAF7822F06C0D9
:101FA0008A2D0C2E01C0880F0A94EAF7B82A2196D0
:101FB000E4CF8B2DCDB7DEB7EBE00C94B923A4E0D2
:101FC000B0E0E5EEFFE00C949D231B8227E02C831C
:101FD0009C012C5F3F4F3A83298310927902FC01C8
:101FE0002181338187E090E0831B9109F8E02F9FE6
:101FF000800D911D1124853491050CF44FC0912C56
:1020000000917902063070F5E02EF12C40E068E096
:10201000CE0101969FDF9701A9014B595D4F7A01CF
:10202000FA018083182F012E12951025012E169586
:1020300016951025CE01019672DF1F5F11FBAA24B1
:10204000A0F8B12C90E0A816B90641F5CE01019692
:1020500066DF811123C0F701808198260F5F00930E
:102060007902CECF40E068E0CE01019673DF082F01
:10207000182F012E12951025012E16951695102554
:10208000CE0101964CDF1F5F11FBCC24C0F8D12C90
:1020900090E0C816D90611F481E0901280E02496F1
:1020A000EBE00C94B923A4E0B0E0E9E5F0E10C9496
:1020B0009F23FC011B8287E08C83CF0104969A83C7
:1020C00089838081853009F052C02181338187E086
:1020D00090E0831B910938E0239F800D911D11240E
:1020E000803A910509F043C01092790231E1C32E84
:1020F0003EEED32E19E880917902E82EF12CBB2414
:10210000B394B80E41E068E0813178F4CE010196D5
:1021100021DFC80ED11CF701EB59FD4F18271083A2
:1021200014E2180FB0927902E6CFCE01019612DFC9
:102130008601080F111DB0927902F701EB59FD4F8E
:102140008095808341E068E0CE01019603DF90E056
:10215000982F8827081B190B41E068E0CE010196F3
:10216000F9DE282F30E081E02017310709F080E008
:102170002496E9E00C94BB23A4E0B0E0E2ECF0E1AB
:102180000C94A3231B8227E02C839C012C5F3F4FE0
:102190003A832983FC0121812430A1F58381813098
:1021A00089F51092790280917902082F10E0FF24BE
:1021B000F394F80E41E0843098F4811106C067E092
:1021C000CE010196C7DE806804C068E0CE010196AA
:1021D000C1DEF801EB59FD4F8083F0927902E3CF25
:1021E00067E0CE010196B6DEF801EB59FD4F880F8E
:1021F0008083F09279029091650292959F7081E0C0
:102200009A3009F080E02496E5E00C94BF23CF9348
:10221000DF93FC018081873021F481818330F9F4E0
:1022200005C08930E1F481818830C9F48381873029
:10223000B1F410927902918180E0891760F4282F1F
:1022400030E0D901AB59BD4FEF01C20FD31F2C8134
:102250002C938F5FF2CF8093790281E001C080E000
:10226000DF91CF910895CF93DF93FC01818183307B
:10227000C1F483818730A9F48081883091F490E0A3
:10228000292F30E0D901AB59BD4FEF01C20FD31F49
:102290008C818C939F5F933099F79093790281E0C2
:1022A00001C080E0DF91CF910895FC0181818C30E5
:1022B000D9F480818630C1F49381911115C040E03A
:1022C000292F30E0DF01A20FB31F14968C91480F25
:1022D000D901AB59BD4F8C939F5F9B3089F7909389
:1022E000790281E09785941380E00895FC01908144
:1022F00080918D03993611F0933751F4982F937094
:10230000913011F4826006C080FF07C08B7F03C04C
:1023100080FD03C0846080938D030895A1E0B0E048
:10232000E4E9F1E10C949C23198280914702909199
:102330004802892BC9F180918E0387FF17C084E37F
:102340000E9464028058803458F0803C58F490E039
:102350008055910923E0959587952A95E1F703C06B
:1023600080E001C08FE08F590E94950480918E0318
:1023700083FF16C082E70E94950480918E0384FF3C
:1023800004C0809149020E94950486E60E9495044B
:1023900080918E0384FF04C0809147020E949504BF
:1023A000109248021092470280917A02882309F421
:1023B00047C2299A00917B022CE1029F80011124DF
:1023C00003581D4FD8018C91873011F0893049F4A2
:1023D0008981811106C0C8011ADF882311F089E6BE
:1023E0008983898181110FC0C8013DDF882311F0E5
:1023F00083E789838981811106C0C80156DF88235C
:1024000011F082E78983F80180818650833008F4D7
:10241000ADC08981811106C0C80145DE882311F055
:1024200083E589838981811152C066E4C801C8DBD4
:102430008823A1F1F0907902FA94F09279024F2D5D
:1024400065E672E086E033DDEF2DF0E0EB59FD4FFD
:10245000E0808E1105C023E02F1510F486E41BC028
:10246000282F30E02F5F3F4F4E2D50E024173507C7
:1024700039F493E09F1520F496E4998380830EC08D
:102480004F2D65E672E08CE012DDE81206C0A3E095
:10249000AF1518F484E5898301C0198289818111FF
:1024A00016C065E4C8018CDB882389F0809179022D
:1024B000815080937902893051F469E085E692E099
:1024C00000DD90916E02891302C085E489838981C1
:1024D00081110FC0C80173DD882311F088E489835E
:1024E0008981811106C0C80147DE882311F084E785
:1024F000898389818111A2C1F8012081438D609176
:102500004902C8014A9631DC682FC8016BDC6BE4D4
:10251000C80156DB8823C1F0E0917902FF24FA94C8
:10252000FE0EF09279026F2D85E692E0D6DCEF2D5B
:10253000F0E090916402E91BF109EB59FD4F9081A5
:10254000891302C08BE489838981811177C1D80105
:1025500013968C911397873021F08F5F13968C938D
:10256000D5C0F8011382818181508183598155231F
:1025700009F4CCC040918E0340FFC8C080918D0308
:102580008E7F8B7F80938D03942F927041FD64C06A
:10259000609163027091790267133EC080E08617F4
:1025A000C0F4282F30E0E1E0E80FD901A15BBD4F76
:1025B0002B593D4FFC91D9012C91F21741F080939A
:1025C000630220918D032D7F20938D0304C08E2FF5
:1025D000E6CF8093630268131FC0C0904603D0907B
:1025E0004703E0904803F090490380904B0290909D
:1025F0004C02A0904D02B0904E02C818D908EA08CB
:10260000FB08B6E2CB16D104E104F10428F4809172
:102610008D03816080938D03971760F4292F30E03C
:10262000F901E15BFD4FD901AB59BD4F8C9180831E
:102630009F5FF2CF9093630280914603909147038E
:10264000A0914803B091490380934B0290934C02B0
:10265000A0934D02B0934E025435E9F446FD1BC0E1
:10266000809179028530B8F0809167028B3471F0E7
:10267000893661F09DEA980F923040F08D57823094
:1026800028F0809168028077803729F480918D034B
:10269000816080938D03B801CE01019627DE809181
:1026A0008D0382FF33C089810E949504809164026A
:1026B000882329F080917902815080937902F12C4E
:1026C000E0917902FE1648F4EF2DF0E0EB59FD4F52
:1026D00080810E943805F394F3CF809164028823AF
:1026E00051F0F0E0EB59FD4F80818F7040E361E0E5
:1026F00090E00E94FC0480918E0385FF05C084E376
:102700000E9464020E9438050E94C00480918E03DA
:1027100082FF7AC080E70E949504F801808140E240
:1027200062E090E00E94C504D80158968C9140E286
:1027300065E0B0E18B9FC00111240E94C504F8013F
:10274000818D40E265E0F0E18F9FC00111240E947D
:10275000C504D8015A968C9140E265E0B0E18B9FA8
:10276000C00111240E94C504F801838D40E265E098
:10277000F0E18F9FC00111240E94C504D801129678
:102780008C9140E263E090E00E94C504F8018181F1
:1027900040E263E090E00E94C504D80113969C914A
:1027A00040E262E027E030E0F901E91BF109CF01E6
:1027B0000E94C50480E20E94950480918E0385FFEB
:1027C00008C084E30E9464020E94380580E20E94EF
:1027D0009504D80113968C911397873031F0119698
:1027E0008C9111978F5F11968C93F12CF801818158
:1027F000F81640F4F801EF0DF11D84810E943805B0
:10280000F394F4CF0E94C004D8011C9280917A0204
:10281000815080937A0280917B028F5F823019F021
:1028200080937B0202C010927B02299889818435B3
:1028300039F485E692E00E94900A02C059819ACE4E
:102840002196ECE00C94B8231F920F920FB60F92D2
:1028500011242F933F934F935F936F937F938F93A5
:102860009F93AF93BF93EF93FF9310926F0080916C
:1028700088009091890020E23EE430938900209303
:102880008800909385008093840080918E0383FF5D
:1028900003C08EE20E94950480917C029CE1899F96
:1028A000F0011124E358FD4F9081933018F091818D
:1028B000923010F449DA18C090917A02913049F4BC
:1028C00080918E0382FFF6CF8FEB91E00E94B304DC
:1028D000F1CF9F5F90937A028F5F823019F08093DF
:1028E0007C0202C010927C02FF91EF91BF91AF91E8
:1028F0009F918F917F916F915F914F913F912F9118
:102900000F900FBE0F901F9018951F920F920FB649
:102910000F921124DF92EF92FF920F931F932F9348
:102920003F934F935F936F937F938F939F93AF9357
:10293000BF93CF93DF93EF93FF9380918F0388230F
:1029400021F082E080938F0353C2009184001091A4
:10295000850024E0169507952A95E1F7C0917C0241
:102960002CE1C29FE0011124C358DD4F88818430DF
:1029700049F40E32110508F43BC20F34110558F02A
:10298000E3D936C2853039F40731110508F430C275
:1029900008321105A8F74A990FC08450823038F4E4
:1029A00061E0CE011FDA109285001092840010932E
:1029B0004A02009349021CC28091490290914A0246
:1029C000081B190B109348020093470210928500D0
:1029D000109284004881473011F04930C9F52091A8
:1029E0004702309148022C3B310510F01A8200C298
:1029F0008A8181112DC02739310538F089E088831B
:102A00001092850010928400F3C180914902909148
:102A10004A0251E05A83493071F4B9016150710999
:102A2000888F8617970720F0282F220F220F280F54
:102A3000298F8A8F23C0BC01660F771F261737079F
:102A400010F41882D5C1888F2F5F298F2A8F8B8F22
:102A50004830A9F48A81811112C081E08A83809173
:102A60004902888F8A8F8091470290914802898F0E
:102A70008B3B910510F4880F01C086958B8F4450D5
:102A8000423008F45DC122E026BB0091490210915A
:102A90004A02C801835392408B3B9105F0F4809128
:102AA0004702909148020A974797B8F486E0888FCA
:102AB0009EE0998F33E13A8F9B8F91E09A838883D0
:102AC000198287E08B831C8280EA9FE090938900C3
:102AD0008093880020936F008BC1D880D1104BC0A9
:102AE000C8014B970697B8F480914702909148022D
:102AF000845192404E9778F488EF91E19093890049
:102B00008093880082E080936F001A8288E0888337
:102B1000198287E01AC0C80109974C97C8F48091C0
:102B20004702909148028D59910989389340A0F449
:102B300080EA9FE0909389008093880082E08093F0
:102B40006F001A8287E0888319828B831C8250C1B0
:102B50000536110508F04CC180914702909148025A
:102B60008536910508F044C1088F898F81E08A83FA
:102B700082E088833DC182E0D81263C0F0904702B2
:102B800022E04F2D602FCE014896EFD82A8188236E
:102B9000F9F0888D90E0AC01440F551F840F951F0C
:102BA000800F911D9595879595958795888F898D2F
:102BB00090E0AC01440F551F840F951F8F0D911DA0
:102BC0009595879595958795898F2F5F2A8310C155
:102BD0002430A8F180EA9FE09093890080938800D8
:102BE0008A818C3050F0288D898D90E0820F911D64
:102BF0008536910524F084E013C08A3080F0288D5A
:102C0000898D90E0820F911D85974CF485E0888333
:102C100088EE93E0909389008093880002C083E05F
:102C20008883809149028A8F809147028B8F198215
:102C300087E08B831C8282E080936F00D9C018826A
:102C40004FCF26E0D2123DC00B301105E8F460E012
:102C5000CE01C8D8888D90E09C01220F331F820FCF
:102C6000931F080F191F1595079515950795088F40
:102C7000898D90E020914702AC01440F551F840FCD
:102C8000951F820F911DABC061E0CE01ABD88A8D3C
:102C900090E09C01220F331F820F931F800F911D24
:102CA00095958795959587958A8F8B8D90E09C015A
:102CB000220F331F820F931F20914702820F911D15
:102CC00065C0E0904702F090480288E0D8122CC01E
:102CD000C7018F5691094D9700F560E0CE0182D86B
:102CE000888D90E09C01220F331F820F931F800F6D
:102CF000911D9595879595958795888F898D90E0FD
:102D00009C01220F331F820F931FE80EF91EF594CA
:102D1000E794F594E794E98E6BC0C701875E91094B
:102D2000879708F065C018C029E0D2120DC0FF24B3
:102D30008CE0E81AF108112761E00E151F050CF070
:102D400060E0CE014FD854C02D2D4E2D602FCE0106
:102D50004A960BD8882301F161E0CE0143D88A8DD1
:102D600090E09C01220F331F820F931F800F911D53
:102D700095958795959587958A8F8B8D90E09C0189
:102D8000220F331F820F931F8E0D911D95958795EE
:102D9000959587958B8F2CC02D2D4E2D602FCE01B4
:102DA00048960E94B50E882301F160E0CE011AD842
:102DB000888D90E09C01220F331F820F931F800F9C
:102DC000911D9595879595958795888F898D90E02C
:102DD0009C01220F331F820F931F8E0D911D95951D
:102DE000879595958795898F03C027E0D212C8CD26
:102DF000FF91EF91DF91CF91BF91AF919F918F9113
:102E00007F916F915F914F913F912F911F910F9102
:102E1000FF90EF90DF900F900FBE0F901F901895CE
:102E20000F931F93CF93DF93E898229A2A9A8EE10B
:102E300090E00E9487042A988EE190E00E94870427
:102E40002A9A8DE290E00E94870480E30E94750236
:102E500084E690E00E948704C6EED1E0FE01319640
:102E60006491FE0184910E946B022296F2E0C831C7
:102E7000DF07A1F78091B602811107C083E30E94AA
:102E8000750284E00E948C0410C0C0EDD1E006EE13
:102E900011E0FE0131966491FE0184910E946B0263
:102EA00022960C171D07A9F7E9CF84E30E9475024B
:102EB00085E30E9464028D30C1F7DF91CF911F91AD
:102EC0000F910895A2E3B0E0E8E6F7E10C94A423A3
:102ED0008091B502882309F4A1C04A9B8AC08FE380
:102EE0000E9464028F778983823368F08AE30E94AC
:102EF000750286E30E9475028DE30E94750284E3E9
:102F00000E9475028BC02A988FEF0E94F30110E097
:102F10008981181760F480E00E94F301E2E0F0E09C
:102F2000EC0FFD1FE10FF11D80831F5FF1CF80E0EB
:102F30000E94F301082F80E00E94F3012A9A84E3A3
:102F40000E94750285E30E9464028D30C1F78A8178
:102F500096E798279A8392E02981E92FF0E092176B
:102F600068F421E030E02C0F3D1FE20FF31F2081B9
:102F70008452822780839F5F822FEECF81E090E092
:102F80008C0F9D1FE80FF91F90818B81892780830B
:102F900080918E0384FF12C081E60E94950410E0A8
:102FA0008981811730F1E1E0F0E0EC0FFD1FE10FC6
:102FB000F11D80810E9495041F5FF2CF81E40E9481
:102FC000950410E08981811758F0E1E0F0E0EC0F02
:102FD000FD1FE10FF11D80810E9438051F5FF2CFB8
:102FE00080918E0385FF03C0802F0E9438050E94C8
:102FF000C00485E30E946402813029F0813161F4CC
:103000008AE30E94750286E30E9475028DE30E94A6
:10301000750284E30E9475020E949903E296E4E03F
:103020000C94C023AAE3B0E0E8E1F8E10C949C23FF
:1030300041E38E010F5F1F4FB80101960E943D05CD
:103040007C019C01332721503109898190E02817A8
:10305000390709F0A3C08091B502811104C0E0DEF8
:1030600083E00E948C04DB809A8186E789278A832B
:1030700022E03981822F90E0F801E80FF91F231731
:1030800050F4DE01A80FB91F8C91845290818927DA
:1030900080832F5FEECF80818D258083CE01C79600
:1030A0000E94F70385E30E94750285E30E94640293
:1030B000833181F1CE01C3960E94F7034BA95CA92D
:1030C0006DA97EA98FA998ADA9ADBAAD8417950752
:1030D000A607B70760F44A015B01881A990AAA0A91
:1030E000BB0A2DEB82169104A104B10470F44817B9
:1030F00059076A077B0770F484549F4FAF4FBF4F47
:1031000084179507A607B70728F486EC91E00E947C
:10311000B30427C085E30E946402833119F6D4FE0C
:1031200008C088E70E948C0488E70E948C0488E726
:1031300001C08AE00E948C042A988FE70E94F30164
:1031400068018C2D801B8E1530F4F60181916F0182
:103150000E94F301F6CF2A9A85E30E94640283312C
:10316000D9F385E30E946402863149F48BE30E941F
:10317000750286E30E9475028DE30E9475028091BC
:10318000B502882349F084E30E94750285E30E941A
:1031900064028D30C1F702C00E942C0FEA96ECE069
:1031A0000C94B823FC019181923731F0923559F497
:1031B00081E08093B60202C01092B60231DE81E057
:1031C0008093B5020895933721F4CF0101962ACF59
:1031D00008951092B5020895FF920F931F93CF9315
:1031E000DF93EC01FC0101900020E9F731978F019A
:1031F000081B190B8981823751F487E390E00E9404
:1032000079020E94E40281E080938F0325C0833716
:1032100009F5F02E2A988FE70E94F3018EEF800FB8
:103220000E94F301229612E01F1528F489910E9452
:10323000F3011F5FF9CF2A9A0E94D2028AE30E940B
:1032400064028F7721F081E00E948C04F7CF0E9406
:10325000E40202C010928F03CDB7DEB7E5E00C9414
:10326000BF23A0E8B0E0E7E3F9E10C94A02380914C
:103270008F03882309F454C0813011F580914603EF
:1032800090914703A0914803B09149032091B70260
:10329000281709F445C085E30E946402813129F4AE
:1032A0008AE30E9475020E94E40280914603909195
:1032B0004703A0914803B09149038093B70230C0FF
:1032C0008FE30E946402F82E87FD27C02A988FEFB3
:1032D0000E94F3018E010F5F1F4F6801E02E8C2DBD
:1032E000801B8F1538F480E00E94F301F601819372
:1032F0006F01F5CF2A9A81E080938501802F8E1986
:103300008F1530F4F80181918F010E949504F6CF5A
:103310000E94C0048FEF8093850181E080938F032A
:10332000C058DF4FE8E00C94BC23CF93DF93E898BC
:10333000229A2A9A8EE190E00E9487042A988EE1D0
:1033400090E00E9487042A9A8DE290E00E94870410
:1033500080E30E94750284E690E00E9487042A9828
:1033600080E40E94F301C8E1D2E0FE0184910E9452
:10337000F3012196F2E0C532DF07B9F78091010130
:103380000E94F301809102010E94F30180910301E8
:103390000E94F301C0E0D0E0FE01E85DFD4F8491A2
:1033A0000E94F3012196C931D105B1F72A9A2A98D2
:1033B0008EE70E94F3018BE290E0EC0121960E94DF
:1033C0008C050E94F301CE01E397B9F72A9A83E3B3
:1033D0000E94750281E00E948C0481E08093440386
:1033E000DF91CF910895A0E0B0E0E9EFF9E10C940E
:1033F0009E23EC018981843769F468E071E0CE0195
:1034000002960E946D0540E260E080910801909173
:10341000090112C0833709F086C18A81823789F495
:1034200064E071E0CE0103960E946D0540E260E029
:1034300080910401909105010E94C5040E94C0047E
:10344000D4C1299A8091BA0281110DC08091B50230
:10345000882329F081E08093B9021092B50265DFDC
:1034600083E00E948C0486E30E9475028AE30E9436
:1034700075028BE30E9475020E94D202FE01019048
:103480000020E9F7EC1BFEEFFF2EFE0E10E0AAE095
:10349000BA2EB5E0EB2E88E2A82E209104013091DF
:1034A0000501812F012E000C990B8217930708F05C
:1034B00005C131E2F31214C05B9A8091080190912A
:1034C00009010E9487045B98809106019091070191
:1034D000FC01BE9EC001BF9E900D11240E94870476
:1034E0006E01F2E0CF0ED11C01E00F150CF0BCC054
:1034F000F60181916F01803309F048C0F1E25B9AD7
:10350000FF1220C080910601909107010E9487045C
:103510005B9880910601909107010E9487045B9A55
:1035200080910601909107010E9487045B98809129
:103530000601909107019C01E29EC001E39E900D5F
:1035400011248EC080910801909109010E94870486
:103550005B9880910801909109019C01220F331F13
:10356000820F931F0E9487045B9A809108019091BB
:1035700009010E9487045B988091080190910901DC
:103580009C01220F331F820F931F6AC0813339F5CC
:1035900031E25B9AF31212C080910601909107010B
:1035A0000E9487045B988091060190910701FC01BD
:1035B000EE9EC001EF9E900D112420C08091080165
:1035C000909109019C01220F331F820F931F0E94CB
:1035D00087045B9880910801909109012EC0F1E267
:1035E0005B9AFF121AC080910601909107010E9418
:1035F00087045B9880910601909107010E948704DF
:103600005B9A80910601909107010E9487045B9864
:10361000809106019091070123C08091080190914B
:1036200009010E9487045B9880910801909109012B
:103630009C01220F331F820F931F0E9487045B9A05
:1036400080910801909109019C01220F331F820F84
:10365000931F0E9487045B98809108019091090153
:103660000E9487040F5F41CF21E25B9AF21214C0DF
:1036700080910601909107010E9487045B988091D8
:10368000060190910701FC01AE9EC001AF9E900D16
:1036900011240E94870410C08091080190910901B3
:1036A0000E9487045B980FE18091080190910901C5
:1036B0000E9487040150C1F71F5FEFCE8091BA02CC
:1036C000882341F080918E0381110EC086E30E9411
:1036D00075020FC08091B902882349F01092B90297
:1036E0009FDB81E08093B5020E94E40202C00E9449
:1036F0002C0F299889E60E94950483E70E9495047F
:1037000011E01F150CF09ACEFE01E10FF11D17FD1F
:10371000FA958181803319F0813309F086E40E94A3
:1037200095041F5FEECF823771F48091B502882334
:1037300029F081E08093B9021092B502F6DD81E0B4
:103740008093BA0252C0863651F58A81803351F493
:1037500080E18093010180EB8093020181E78093F7
:10376000030107C043E061E071E0CE0102960E94D0
:103770003D0589E60E94950486E60E9495048AE349
:103780000E949504809101010E94380580910201F8
:103790000E943805809103010E9438054FCE88377A
:1037A000E1F48091B902882339F01092B90238DB34
:1037B00081E08093B50208C082E090E00E94790227
:1037C00080918E03882319F00E94E40203C086E3EF
:1037D0000E9475021092BA0208C0833631F468E084
:1037E00071E0CE0101960E946D05CDB7DEB7EAE02B
:1037F000C1C720911308309114082115310521F417
:1038000020910C0130910D0180910A0190910B01E2
:10381000009741F48DB79EB740910E0150910F0172
:10382000841B950B2817390718F4821B930B0895F6
:1038300080E090E0089582E40E94950440E265E013
:1038400080911308909114080E94C5040E94C0043E
:1038500083E50E94950440E265E080910C0190911F
:103860000D010E94C5040E94C00485E40E949504D5
:1038700040E265E080910A0190910B010E94C5042D
:103880000E94C00486E40E949504B3DF40E265E034
:103890000E94C5040C94C00408951F920F920FB6A5
:1038A0000F9211242F933F934F935F936F937F93C6
:1038B0008F939F93AF93BF93EF93FF938091920366
:1038C000882339F080E993E00E94BC068093C6000B
:1038D00005C08091C1008F7D8093C100FF91EF9161
:1038E000BF91AF919F918F917F916F915F914F9118
:1038F0003F912F910F900FBE0F901F9018951F9220
:103900000F920FB60F9211242F933F934F935F9313
:103910006F937F938F939F93AF93BF93EF93FF9397
:1039200095B182E0892785B96091C6008091C00079
:10393000887121F483E194E00E94A606FF91EF9143
:10394000BF91AF919F918F917F916F915F914F91B7
:103950003F912F910F900FBE0F901F90189597FFDA
:1039600004C022E02093C0009F779093C50080930D
:10397000C40088E98093C10086E08093C200089566
:103980008091C10085FD09C080919203882329F0B0
:103990008091C10080628093C1000895E09142034C
:1039A000F091430381E00995EBCF08950F931F93A6
:1039B000CF93DF93EC0100E0802F90E09C01220F79
:1039C000331F280F391FF901E859FF4F1491F901EE
:1039D000E759FF4F25913491112399F0209739F43D
:1039E00080E20E949504812F0E94950408C088817E
:1039F000181305C0CE01F901099581E003C00F5FDE
:103A0000DBCF80E0DF91CF911F910F910895CF938D
:103A1000C09185018093850180911504882309F464
:103A20003DC083E194E00E94BC062091BB0230912E
:103A3000BC028A3011F08D3011F52115310561F38A
:103A4000F901E354FD4F10828DEB92E0AFDF81115D
:103A500011C089E592E00E94B3048DEB92E00E94D0
:103A6000A80481E492E00E94B30480E090E09EDF2D
:103A70000E94C0041092BC021092BB02CDCF20382D
:103A8000310550F6A9014F5F5F4F5093BC02409340
:103A9000BB02F901E354FD4F8083BECFC093850183
:103AA000CF9108952D9A84B18C6284B9249880E5D1
:103AB0008CBD8DB581608DBD0895A0E0B0E0E2E6DB
:103AC000FDE13DC6B82EC92ED62E7A0189012A986D
:103AD0008FEF0E94F301CB2DDC2DCE018D0D911DBA
:103AE0006C01CC15DD0529F080E00E94F30189937B
:103AF000F8CFE114F10469F080E00E94F301F701CE
:103B000080830115110529F080E00E94F301F8017E
:103B100080832A9ACDB7DEB7E9E02DC6CF938823FC
:103B200031F01092A10486E30E94750207C085E37C
:103B30000E9464028D30A9F7C0E039C085E30E947D
:103B40006402C82F8130D1F78BE30E9475028AE3AB
:103B50000E94750210929604109298041092970495
:103B600010929A041092990485EC95E090939C042D
:103B700080939B0410929D04C0939E0410929F0416
:103B800080913E038093A00460E083E00E946B027A
:103B900062E088E00E946B0284E30E94750285E384
:103BA0000E9464028D30D9F781E08093A1048C2FAC
:103BB000CF9108950F931F93CF93DF93182F062F64
:103BC0005398529810923E0310923F03E898229A1D
:103BD0002A9A8EE190E00E9487042A988EE190E074
:103BE0000E9487042A9A8DE290E00E94870480E375
:103BF0000E94750284E690E00E948704113031F043
:103C0000123009F076C0C1E7D2E01DC0CEEBD2E0A1
:103C1000FE0184918134E0F431966491FE01849137
:103C20000E946B022296F3E0C638DF0789F710C0C6
:103C300031966491FE0184910E946B022296F3E01A
:103C4000C933DF0779F1FE018491813488F32AC0FA
:103C50000130C9F010933E0300933F0383E30E94B9
:103C600075028CE0E6E9F4E0DF011D928A95E9F740
:103C700086E0EDE0F8E0DF011D928A95E9F784E047
:103C80000E948C0436C060E087E10E946B0267E00E
:103C900083E00E946B0264E584E00E946B0266E7A9
:103CA00085E01CC00130B1F660E087E10E946B0244
:103CB00067E083E00E946B0264E584E00E946B028F
:103CC0006DE385E00E946B0260E585E10E946B0276
:103CD0006BE580E10E946B0268EF81E10E946B025C
:103CE00062E082E00E946B026EE280E00E946B0262
:103CF000B1CFDF91CF911F910F910895FF920F9354
:103D00001F93CF93DF93F82E092F162F2A988FE752
:103D10000E94F301CF2DD02FCE01810F911D8C0178
:103D2000C017D10721F089910E94F301F9CF2A9A97
:103D300081E0CDB7DEB7E5E022C58DE30C947502D6
:103D40000895A4E0B0E0E6EAFEE1FFC490913F03ED
:103D5000923009F009C180913E03882309F404C11F
:103D60008091A104813049F030F0823059F08330E5
:103D700009F472C0A2C081E0F6C04A9B9EC0909335
:103D8000A1049BC04B9B99C020E030E040E050E094
:103D900063E080919B0490919C048FDE2091A004AD
:103DA00080919B0490919C04213071F4BE016F5F5F
:103DB0007F4F2ED28111D3C08981809396040AD37C
:103DC000AC0160E081E00EC040E0BE016F5F7F4F5C
:103DD000A8D28111C4C0898180939604FBD2AC0122
:103DE00060E080E00DD390939804809397046091F5
:103DF000970470919804693482E0780708F0AFC0A6
:103E000086E06F3F710509F050F40E946B0260E09C
:103E100088E00E946B0281E080939D0402C00E94B2
:103E20006B0280919B0490919C04039690939C0458
:103E300080939B04809197049091980403979093AA
:103E40009A048093990410929E0483E08093A104C5
:103E500067E00E946B0231C04B9B2FC08091990498
:103E600090919A048F3F910509F058F480919D0438
:103E7000811107C060E088E00E946B0281E08093BE
:103E80009D0420E030E040E050E06FE180919B0431
:103E900090919C0412DE8091990490919A044F971E
:103EA00090939A048093990480919B0490919C0430
:103EB0004F9690939C0480939B044A9953C08091A1
:103EC000A104823008F44EC01C821B829E012D5F2B
:103ED0003F4FAE014C5F5F4F6091990480919B040E
:103EE00090919C04EADD81E080939F048091A0047E
:103EF000813051F4809196046DD2AC0162EA74E095
:103F000085EC95E0E6D209C08091960463D2AC01BD
:103F100062EA74E085EC95E055D3892B01F582E6E1
:103F20000E94950410E08091A20454D2212F30E029
:103F30002817390740F4F901EE55FB4F80810E94A4
:103F400038051F5FF0CF80918E0385FF06C08B81FF
:103F50000E9438058C810E9438050E94C00410928E
:103F6000A10402C080E0DADD2496E3E00AC4A0E008
:103F7000B0E0ECEBFFE1E4C36C017B01042FFC013A
:103F8000808128D2EC0101978232914008F0C4C0B0
:103F900080913F03823019F410913E0301C010E07C
:103FA00061E0802F07DEAE01B601C701013029F4C0
:103FB0003BD2AE0161E081E004C05CD2AE0161E0C1
:103FC00080E01ED290930E0880930D08B6DE8077B5
:103FD00011F086E35FC08BE30E947502F092100837
:103FE000E0920F081092120860910D0870910E086F
:103FF00086E06F3F710509F050F40E946B0260E0AB
:1040000088E00E946B0281E08093110808C00E9442
:104010006B0262E088E00E946B0210921108C0916E
:104020000D08D0910E08C134D10510F0C0E4D0E0E5
:104030006C2F80910F089091100860DE80910F081E
:10404000909110088C0F9D1F9093100880930F087B
:1040500080910D0890910E088C1B9D0B90930E087B
:1040600080930D08892B19F481E08093120885E371
:104070000E94750201E003C0803C9105B8F1809177
:10408000120881113EC04B990AC057DE80778037F5
:10409000B1F78BE30E94750282E090E042C0C091CC
:1040A0000D08D0910E08C132D10510F0C0E2D0E069
:1040B0006C2F80910F089091100820DE80910F08DE
:1040C000909110088C0F9D1F9093100880930F08FB
:1040D00080910D0890910E088C1B9D0B90930E08FB
:1040E00080930D08009741F6009312088091110803
:1040F0008111C5CF60E088E00E946B020093110837
:10410000BECF85E30E9464028130D9F7112339F0D4
:1041100062E0812F4FDD03C081E090E002C080E0CB
:1041200090E0CDB7DEB7E8E027C31F93CF93DF93CE
:10413000EC018981823789F48A818823C9F1833728
:1041400019F462E081E004C0843721F462E082E087
:1041500031DD2EC060E080E0FBCF833749F510E011
:10416000612F70E09B01220F331FC90103968C0F52
:104170009D1FFC014081442369F0FE01E20FF31F03
:104180002481222339F06E557B4F41E00E943D058A
:104190001F5FE6CF8A81833711F441E003C0843783
:1041A00001F542E065EC75E082EA94E0E0DE19C0DA
:1041B00080913F03823079F480913E03813029F071
:1041C000823031F485E692E008C08BE692E005C0CB
:1041D00081E692E002C08DE592E00E94B3040E9465
:1041E000C004DF91CF911F910895DC01EC91AE2FB7
:1041F000A295AF70B0E0AF5DBE4F8C91DB018C93A8
:10420000EF70F0E0EF5DFE4F808111968C93089582
:10421000CF93DF93EC01A881E981CA2FC295CF70BB
:10422000D0E0CF5EDE4F2881AF70B0E0AF5EBE4F12
:104230003C91AE2FA295AF70B0E0AF5EBE4F9C91A7
:10424000EF70F0E0EF5EFE4F808151E02F3F09F00C
:1042500050E041E03F3F09F040E0542B41E09F3FF8
:1042600009F040E0452BA9F48F3F99F0D0E42D9F51
:10427000A0011124E0E13E9F90011124242B282B62
:10428000F4E09F9FC0011124822BEB01888380E022
:1042900001C081E0DF91CF910895CF93DF939C011E
:1042A000DB0141110FC0EC01E981CE2FCF70D0E0CE
:1042B000CF58DE4F5881E295EF70F0E0EF58FE4F97
:1042C000908101C094E1E901E881CE2FCF70D0E068
:1042D000CF58DE4F2881E295EF70F0E0EF58FE4FA7
:1042E0006081D4E06D9FB0011124822F82958F7080
:1042F000682B6C9380E1289F90011124892F86956B
:104300008695282B11962C931197411107C0C0E474
:104310009C9FC0011124852B12968C93DF91CF9125
:104320000895DC0111968C911197411118C01296D5
:104330009C911297E92FEF73F0E0EF5CFE4F5081F4
:10434000E82FEF7024E0E29FF001112492959695FA
:1043500096959370E92BEF5CFE4F908102C090E040
:1043600050E0EC9182958F70AE2FA370F0E1AF9F7B
:10437000D0011124A82BAF5CBE4FAC91E695E69519
:10438000F0E0EF5CFE4F3081E1E0AF3F09F0E0E0AC
:1043900081E03F3F09F080E0E82B81E05F3F09F0DA
:1043A00080E08E2B99F49F3F89F080E1389F900147
:1043B00011242A2BFB01208341110AC0F0E19F9FA9
:1043C000C0011124852BFB01818302C081E0089587
:1043D00080E00895482F50E08A3150F09A012A5128
:1043E000310984E0359527958A95E1F72D5F01C065
:1043F00022E0CA010196820F911D820F911D08953E
:10440000882331F0CA0161110196880F991F089520
:10441000CA01880F991F840F951F96958795611182
:1044200001C040FD01960895A0E0B0E0E9E1F2E2AC
:1044300085C18A017C0186E9F70181937F01EB0147
:104440006F015B01A40EB51ECA15DB0541F0B60174
:10445000CE01CBDE2196F2E0CF0ED11CF5CFF801D4
:10446000EE0FFF1FEE0DFF1D85E58083CDB7DEB794
:10447000EAE080C1A0E0B0E0EFE3F2E260C18C01CD
:104480007B01EA0185E5B82E2097F9F0C130D1050E
:1044900029F441E0B801C70100DF0DC0C80103964F
:1044A0006C0140E0B801C701C230D10539F4F5DE36
:1044B000F801B3828601C0E0D0E0E6CFEEDE8601EF
:1044C000F2E0EF0EF11C2297DFCFCDB7DEB7E9E0C7
:1044D00052C1A0E0B0E0EEE6F2E22AC15C014B017D
:1044E0007A01C12CD12C00E010E0C0E0D0E0612CBA
:1044F000712C22E1422E512CE114F10409F456C032
:10450000B401C50185DE811154C082E0E816F104D2
:10451000A1F0EAE06E16710460F0C3010A97B201DF
:10452000F1D0AC0121E090E0452B09F020E0022F12
:10453000192FC114D104A1F005C0C114D10499F000
:1045400001E010E0C095D095DD27F401808190E076
:10455000C817D90789F5C12CD12CC0E0D0E019C00B
:104560000115110589F09E0120953095232F3327E1
:10457000F401808190E028173907F1F4CC24C3942A
:10458000D12C00E010E005C0F4016081CE01A4D080
:10459000EC01F1E0EF1AF1088FEF681A780AE2E017
:1045A000AE0EB11CFFEF8F1A9F0AA6CF80E090E0FD
:1045B00005C081E090E002C082E090E0CDB7DEB7B8
:1045C000E0E1D2C0A0E0B0E0E7EEF2E2B3C06C01FF
:1045D0008B014A01C0E0D0E0E12CF12C22E1622EF7
:1045E000712C8114910409F471C081E08816910442
:1045F000D9F441E0B801C60194DE882319F081E0C6
:1046000090E066C05701EFEFAE1ABE0A9E012095FA
:1046100030953327F801808190E02817390709F495
:1046200051C082E090E054C040E0B801C60179DE9C
:104630008111E5CFF2E08F1A9108570182E0A80EB0
:10464000B11C8114910451F0EBE0AE16B104D0F02E
:10465000C7010A97B30156D0892BA1F4C095D09514
:104660009E013327F801818190E028173907C9F6A8
:10467000CD2FDD27808190E0C817D90791F6C0E0E3
:10468000D0E01AC0F8016081CE01F1E08F169104EC
:1046900071F422D0EC019C0120953095232F332713
:1046A000F801818190E02817390731F0BACF14D092
:1046B000F801618111D0EC01F3E0CF0ED11C0E5F47
:1046C0001F4F02C0812C912C75018BCF80E090E0B0
:1046D000CDB7DEB7EEE04AC028E0FC01EE27F07867
:1046E000EF2FFF27462F407850E0880F991FE417DF
:1046F000F50721F035E683273DE39327660F215028
:1047000061F70895AA1BBB1B51E107C0AA1FBB1F7D
:10471000A617B70710F0A61BB70B881F991F5A954D
:10472000A9F780959095BC01CD0108952F923F92F5
:104730004F925F926F927F928F929F92AF92BF92B1
:10474000CF92DF92EF92FF920F931F93CF93DF935D
:10475000CDB7DEB7CA1BDB0B0FB6F894DEBF0FBEBA
:10476000CDBF09942A88398848885F846E847D8407
:104770008C849B84AA84B984C884DF80EE80FD8009
:104780000C811B81AA81B981CE0FD11D0FB6F8947F
:10479000DEBF0FBECDBFED010895F999FECF92BDEA
:1047A00081BDF89A992780B50895262FF999FECFF3
:1047B0001FBA92BD81BD20BD0FB6F894FA9AF99A3E
:0A47C0000FBE01960895F894FFCF94
:1047CA000210B07106000401A401000017082000BD
:1047DA0000FFFFFFFFFF0302FFFF0100FFFFFFFFD4
:1047EA00FFAAA9A6A59A9996956A6966655A59561D
:1047FA0055FFFFFFFFFFFFFFFFFFFFFF03FF010260
:10480A00FFFFFFFF07FFFF00FFFF0506FF04FFFF93
:10481A00FFFFFFFF0BFF090AFFFF0FFFFF08FFFF64
:10482A00FFFF0D0EFF0CFFFFFFFFFFFFFFFFFFFF64
:10483A00FF160D0E0B1C191A132C252623343132A0
:02484A00290043
:00000001FF
